:020000040000FA
:100000000C9434000C9451000C9451000C94510049
:100010000C9451000C9451000C9451000C9451001C
:100020000C9451000C9451000C9451000C9451000C
:100030000C9451000C9451000C9451000C945100FC
:100040000C9451000C9451000C9451000C945100EC
:100050000C9451000C9451000C9451000C945100DC
:100060000C9451000C94510011241FBECFEFD8E026
:10007000DEBFCDBF11E0A0E0B1E0EAE9F8E002C0E8
:1000800005900D92A434B107D9F721E0A4E4B1E0C2
:1000900001C01D92A634B207E1F70E94AA000C9499
:1000A0004B040C9400009091C00095FFFCCF80930E
:1000B000C60008950F931F93CF93DF93CDB7DEB79C
:1000C000C054D1090FB6F894DEBF0FBECDBFE0918A
:1000D0004501F0E0EE0FFF1FEA5FFE4F81818F9335
:1000E00080818F93E0914401F0E0EE0FFF1FE0501C
:1000F000FF4F81818F9380818F9382E191E09F9365
:100100008F931F9280E48F938E010F5F1F4F1F9379
:100110000F930E9466010FB6F894DEBF0FBECDBFED
:10012000F80181918F01882319F00E945300F8CFC4
:100130008DE00E9453008AE00E945300C05CDF4FB4
:100140000FB6F894DEBF0FBECDBFDF91CF911F91E8
:100150000F910895569A83E884BD8AE085BD57982B
:100160005F9A2098289A1092C50087E68093C40071
:1001700088E08093C10086E08093C200E091450151
:10018000F0E0E15FFE4F9081E0914401F0E0E45F38
:10019000FE4F808187BD899FC001112464E670E015
:1001A0000E943E0168BD0E945A00C3E0D0E004E610
:1001B00010E089B190E0880F892F881F990B892B57
:1001C00081F52FEF89EF90E0215080409040E1F7DA
:1001D00000C0000089B190E0880F892F881F990B1B
:1001E000892BF9F48091440190E00196BE010E94B0
:1001F0003E0180934401E0914501F0E0E15FFE4F54
:100200002081845F9E4FFC01808187BD829FC00159
:100210001124B8010E943E0168BD0E945A004F9B04
:10022000FECF1899C6CFFFEF29EF80E0F1502040B4
:100230008040E1F700C000001899BBCF80914501D4
:1002400090E00196BE010E943E0180934501815FCE
:100250009E4FFC019081E0914401F0E0E45FFE4F8D
:10026000808187BD899FC0011124B8010E943E0191
:1002700068BD0E945A00189BFECF9BCF97FB072EAC
:1002800016F4009407D077FD09D00E94520107FCB4
:1002900005D03EF4909581959F4F08957095619596
:1002A0007F4F0895AA1BBB1B51E107C0AA1FBB1FAC
:1002B000A617B70710F0A61BB70B881F991F5A95F2
:1002C000A9F780959095BC01CD010895AEE0B0E00E
:1002D000ECE6F1E00C9422040D891E898F89988D3B
:1002E00026E02C831A83098397FF02C080E090E800
:1002F00001979E838D83AE01455E5F4F698D7A8D38
:10030000CE0101960E9496014D815E8157FD0AC083
:100310002F813885421753070CF49A01020F131FDF
:10032000F80110822E96E4E00C943E04ABE0B0E0BD
:10033000ECE9F1E00C9414047C013B018A01FC011E
:1003400017821682838181FFC8C1CE0101965C01AC
:10035000F7019381F30193FD859193FF81913F0113
:10036000882309F453C1853239F493FD859193FFB5
:1003700081913F01853229F4B70190E00E94860304
:10038000E7CF912C212C312CFFE1F31538F08B3283
:1003900011F190F4803209F1833229F137FC3CC02D
:1003A00020ED280F2A3050F536FE20C08AE0989EB6
:1003B000200D1124922E06C08D3291F0803371F7FA
:1003C000689430F8F30193FD859193FF81913F018B
:1003D0008111DACF21C0689431F8689432F8F2CFF5
:1003E000689433F8EFCF689434F8ECCFEAE02E9EAF
:1003F000200D1124222E689435F8E4CF8E3229F492
:1004000036FC04C1689436F8DDCF8C3619F4689454
:1004100037F8D8CF8836B1F2982F9F7D9554933016
:10042000E0F08336A1F18337C1F1833509F063C071
:100430002801F2E04F0E511CF801C080D180692DD7
:1004400070E036FC02C06FEF7FEFC6010E947003C0
:100450004C01689437F882010AC00C5F1F4FFFE31C
:10046000F98388248394912C6501E89437F833FE4E
:100470002DC0522C8114910471F5552009F468CFD8
:10048000B70180E290E00E9486035A94F6CFF8010B
:10049000808189830E5F1F4FE4CF2801F2E04F0E69
:1004A000511CF801C080D180692D70E036FC02C07B
:1004B0006FEF7FEFC6010E947B034C018201D5CF15
:1004C000B70180E290E00E9486032A942814190460
:1004D00009F0B0F7CECFF60137FC859137FE819158
:1004E0006F01B70190E00E94860351105A94F1E029
:1004F0008F1A9108BFCF843619F0893609F077C07A
:10050000F80137FE6BC060817181828193810C5F3D
:100510001F4FF32DFF763F2E97FF09C090958095D2
:10052000709561957F4F8F4F9F4F689437F82AE001
:1005300030E0A5010E94B603C82ECA188C2C432CAB
:1005400036FE0CC0E89440F8C91440F434FE05C0EF
:1005500032FC03C0F32DFE7E4F2E892C44FE95C045
:10056000FE01EC0DF11D8081803309F087C0242D40
:10057000297E422E842D8870582E43FC95C040FE63
:100580008FC09C2C821418F42C0C922C981844FECA
:1005900091C0B70180E390E00E94860342FE09C04B
:1005A00088E790E041FE02C088E590E0B7010E9434
:1005B0008603C91408F48AC0CA94D12C9FEFC91AC3
:1005C000D90ACA0CDB1CF60182916F01B70190E0D9
:1005D0000E948603AC14BD04B1F74FCF60817181D6
:1005E000072E000C880B990B0E5F1F4F92CFD32C58
:1005F000E894D4F82AE030E0853739F1232D297FBB
:10060000D22E8F3601F148F48835A9F0F7018681A2
:1006100097812B96E2E10C943004803749F08837BB
:10062000A9F7D4FE02C06894D2F820E130E00DC0F2
:100630006894D4F8F6CF34FE03C0822F8660D82E9B
:1006400020E132E002C028E030E0F801D7FE0FC020
:1006500060817181828193810C5F1F4FA5010E948F
:10066000B603C82ECA183D2CE89437F867CF6081CE
:10067000718190E080E00E5F1F4FF0CF42FC02C01E
:10068000839478CF8394839475CF842D867809F4EE
:1006900071CFF6CFB70180E290E00E948603839489
:1006A0008214C0F3512C73CF522C5818821408F4C2
:1006B0006ECFF8CF842D867809F47BCF8BE241FE94
:1006C00080E247FC8DE2B70190E071CFB70180E393
:1006D00090E00E9486039A946CCF8FEF9FEF99CFA2
:1006E000FC010590615070400110D8F780959095FD
:1006F0008E0F9F1F0895FC01615070400190011002
:10070000D8F7809590958E0F9F1F08950F931F9394
:10071000CF93DF93182F092FEB018B8181FD09C047
:100720001FEF0FEF812F902FDF91CF911F910F912E
:10073000089582FF14C02E813F818C819D812817EE
:1007400039073CF4E881F981CF01019699838883C8
:1007500010838E819F8101969F838E83E3CFE885EE
:10076000F985812F0995892BA1F3DACFFA01AA2700
:10077000283051F1203181F1E8946F936E7F6E5FE4
:100780007F4F8F4F9F4FAF4FB1E03ED0B4E03CD092
:10079000670F781F891F9A1FA11D680F791F8A1F75
:1007A000911DA11D6A0F711D811D911DA11D20D0DC
:1007B00009F468943F912AE0269F11243019305D96
:1007C0003193DEF6CF010895462F4770405D419387
:1007D000B3E00FD0C9F7F6CF462F4F70405D4A33D4
:1007E00018F0495D31FD4052419302D0A9F7EACF9C
:1007F000B4E0A6959795879577956795BA95C9F7CB
:1008000000976105710508959B01AC010A2E0694BD
:100810005795479537952795BA95C9F7620F731F76
:10082000841F951FA01D08952F923F924F925F92B3
:100830006F927F928F929F92AF92BF92CF92DF92F0
:10084000EF92FF920F931F93CF93DF93CDB7DEB755
:10085000CA1BDB0B0FB6F894DEBF0FBECDBF0994E9
:100860002A88398848885F846E847D848C849B8440
:10087000AA84B984C884DF80EE80FD800C811B814E
:10088000AA81B981CE0FD11D0FB6F894DEBF0FBE7D
:10089000CDBFED010895F894FFCF26012C01320160
:1008A00038013C014001F97C3E19324B46726571BA
:1008B0003A202573207C20447574793A20257300F2
:1008C00031206B487A0032206B487A0034206B4824
:0E08D0007A00323525003530250037352500F9
:107E0000112484B714BE81FFF0D085E080938100F7
:107E100082E08093C00088E18093C10086E0809377
:107E2000C20080E18093C4008EE0C9D0259A86E02C
:107E300020E33CEF91E0309385002093840096BBD3
:107E4000B09BFECF1D9AA8958150A9F7CC24DD24C4
:107E500088248394B5E0AB2EA1E19A2EF3E0BF2EE7
:107E6000A2D0813461F49FD0082FAFD0023811F036
:107E7000013811F484E001C083E08DD089C08234E0
:107E800011F484E103C0853419F485E0A6D080C0E4
:107E9000853579F488D0E82EFF2485D0082F10E0AE
:107EA000102F00270E291F29000F111F8ED06801E7
:107EB0006FC0863521F484E090D080E0DECF843638
:107EC00009F040C070D06FD0082F6DD080E0C81688
:107ED00080E7D80618F4F601B7BEE895C0E0D1E017
:107EE00062D089930C17E1F7F0E0CF16F0E7DF06D8
:107EF00018F0F601B7BEE89568D007B600FCFDCFD4
:107F0000A601A0E0B1E02C9130E011968C91119780
:107F100090E0982F8827822B932B1296FA010C0160
:107F200087BEE89511244E5F5F4FF1E0A038BF0790
:107F300051F7F601A7BEE89507B600FCFDCF97BE46
:107F4000E89526C08437B1F42ED02DD0F82E2BD052
:107F50003CD0F601EF2C8F010F5F1F4F84911BD097
:107F6000EA94F801C1F70894C11CD11CFA94CF0C13
:107F7000D11C0EC0853739F428D08EE10CD085E9AC
:107F80000AD08FE07ACF813511F488E018D01DD067
:107F900080E101D065CF982F8091C00085FFFCCF94
:107FA0009093C60008958091C00087FFFCCF809118
:107FB000C00084FD01C0A8958091C6000895E0E648
:107FC000F0E098E1908380830895EDDF803219F02E
:107FD00088E0F5DFFFCF84E1DECF1F93182FE3DFCA
:107FE0001150E9F7F2DF1F91089580E0E8DFEE27F6
:047FF000FF270994CA
:027FFE00040479
:00000001FF
