:100000000C9434000C9451000C9451000C94510049
:100010000C9451000C9451000C9451000C9451001C
:100020000C9451000C9451000C9451000C9451000C
:100030000C9451000C9451000C9451000C945100FC
:100040000C9451000C9451000C9451000C945100EC
:100050000C9451000C9451000C9451000C945100DC
:100060000C9451000C94510011241FBECFEFD8E026
:10007000DEBFCDBF11E0A0E0B1E0E0E6F2E002C0FB
:1000800005900D92AE32B107D9F721E0AEE2B1E0B2
:1000900001C01D92A333B207E1F70E945F000C94E8
:1000A0002E010C940000FC019191992339F080916C
:1000B000C00085FFFCCF9093C600F6CF0895CF9384
:1000C000DF93CDB7DEB760970FB6F894DEBF0FBEF3
:1000D000CDBF1092C50087E68093C40088E080936E
:1000E000C10086E08093C20003E311E0EE24E394B4
:1000F000F12C549A5C982FEF39EF80E0215030407A
:100100008040E1F700C000005C9A95ED9A95F1F708
:100110000000549825ED2A95F1F700004C9966C02F
:100120008FE391E00197F1F700C000004C9B5EC0A7
:100130008FE391E00197F1F700C00000EEE2F1E0FB
:1001400087E090E020E04C9BFECF30EA3A95F1F753
:100150004C9B07C0A701082E01C0440F0A94EAF780
:10016000242B4C99FECF019770F721930E171F0790
:1001700039F7D0902E01C090300180912F018D0D64
:100180008C0D90913101890F9091320189132EC00D
:1001900080E091E00E9453004AE0BE016F5F7F4F14
:1001A0008C2D90E00E94F900CE0101960E94530030
:1001B00087E091E00E9453004AE0BE016F5F7F4FED
:1001C0008D2D90E00E94F900CE0101960E9453000F
:1001D00082E191E00E9453008FEF97EA21E681507F
:1001E00090402040E1F700C0000083CF87E191E01C
:1001F000F1CFBB274A3031F4992322F4BDE2909528
:1002000081959F4F0C940501BB27FB015527AA2719
:10021000880F991FAA1FA41710F0A41B8395505193
:10022000B9F7A05DAA3308F0A95DA193009779F70B
:10023000B111B1931192CB010C941E01DC01FC01B0
:10024000672F71917723E1F7329704C07C916D930A
:1002500070836291AE17BF07C8F30895F894FFCF7B
:1002600054656D703A20002043207C2048756D3A1B
:10027000200020250D0A004572726F7220616C20EB
:0E0280006C6565722044485431310D0A00004F
:00000001FF
