:020000040000FA
:100000000C9434000C9451000C9451000C94510049
:100010000C9451000C9451000C9451000C9451001C
:100020000C9451000C9451000C9451000C9451000C
:100030000C9451000C9451000C9451000C945100FC
:100040000C9451000C9451000C9451000C945100EC
:100050000C9451000C9451000C9451000C945100DC
:100060000C9451000C94510011241FBECFEFD8E026
:10007000DEBFCDBF11E0A0E0B1E0E0E6F2E002C0FB
:1000800005900D92AE32B107D9F721E0AEE2B1E0B2
:1000900001C01D92A333B207E1F70E945F000C94E8
:1000A0002E010C940000FC019191992339F080916C
:1000B000C00085FFFCCF9093C600F6CF0895CF9384
:1000C000DF93CDB7DEB760970FB6F894DEBF0FBEF3
:1000D000CDBF1092C50087E68093C40088E080936E
:1000E000C10086E08093C20003E311E0EE24E394B4
:1000F000F12C549A5C982FEF39EF80E0215030407A
:100100008040E1F700C000005C9A95ED9A95F1F708
:100110000000549825ED2A95F1F700004C9966C02F
:100120008FE391E00197F1F700C000004C9B5EC0A7
:100130008FE391E00197F1F700C00000EEE2F1E0FB
:1001400087E090E020E04C9BFECF30EA3A95F1F753
:100150004C9B07C0A701082E01C0440F0A94EAF780
:10016000242B4C99FECF019770F721930E171F0790
:1001700039F7D0902E01C090300180912F018D0D64
:100180008C0D90913101890F9091320189132EC00D
:1001900080E091E00E9453004AE0BE016F5F7F4F14
:1001A0008C2D90E00E94F900CE0101960E94530030
:1001B00087E091E00E9453004AE0BE016F5F7F4FED
:1001C0008D2D90E00E94F900CE0101960E9453000F
:1001D00082E191E00E9453008FEF97EA21E681507F
:1001E00090402040E1F700C0000083CF87E191E01C
:1001F000F1CFBB274A3031F4992322F4BDE2909528
:1002000081959F4F0C940501BB27FB015527AA2719
:10021000880F991FAA1FA41710F0A41B8395505193
:10022000B9F7A05DAA3308F0A95DA193009779F70B
:10023000B111B1931192CB010C941E01DC01FC01B0
:10024000672F71917723E1F7329704C07C916D930A
:1002500070836291AE17BF07C8F30895F894FFCF7B
:1002600054656D703A20002043207C2048756D3A1B
:10027000200020250D0A004572726F7220616C20EB
:0E0280006C6565722044485431310D0A00004F
:107E0000112484B714BE81FFF0D085E080938100F7
:107E100082E08093C00088E18093C10086E0809377
:107E2000C20080E18093C4008EE0C9D0259A86E02C
:107E300020E33CEF91E0309385002093840096BBD3
:107E4000B09BFECF1D9AA8958150A9F7CC24DD24C4
:107E500088248394B5E0AB2EA1E19A2EF3E0BF2EE7
:107E6000A2D0813461F49FD0082FAFD0023811F036
:107E7000013811F484E001C083E08DD089C08234E0
:107E800011F484E103C0853419F485E0A6D080C0E4
:107E9000853579F488D0E82EFF2485D0082F10E0AE
:107EA000102F00270E291F29000F111F8ED06801E7
:107EB0006FC0863521F484E090D080E0DECF843638
:107EC00009F040C070D06FD0082F6DD080E0C81688
:107ED00080E7D80618F4F601B7BEE895C0E0D1E017
:107EE00062D089930C17E1F7F0E0CF16F0E7DF06D8
:107EF00018F0F601B7BEE89568D007B600FCFDCFD4
:107F0000A601A0E0B1E02C9130E011968C91119780
:107F100090E0982F8827822B932B1296FA010C0160
:107F200087BEE89511244E5F5F4FF1E0A038BF0790
:107F300051F7F601A7BEE89507B600FCFDCF97BE46
:107F4000E89526C08437B1F42ED02DD0F82E2BD052
:107F50003CD0F601EF2C8F010F5F1F4F84911BD097
:107F6000EA94F801C1F70894C11CD11CFA94CF0C13
:107F7000D11C0EC0853739F428D08EE10CD085E9AC
:107F80000AD08FE07ACF813511F488E018D01DD067
:107F900080E101D065CF982F8091C00085FFFCCF94
:107FA0009093C60008958091C00087FFFCCF809118
:107FB000C00084FD01C0A8958091C6000895E0E648
:107FC000F0E098E1908380830895EDDF803219F02E
:107FD00088E0F5DFFFCF84E1DECF1F93182FE3DFCA
:107FE0001150E9F7F2DF1F91089580E0E8DFEE27F6
:047FF000FF270994CA
:027FFE00040479
:00000001FF
