:020000040000FA
:100000000C9434000C9451000C9451000C94510049
:100010000C9451000C9451000C9451000C9451001C
:100020000C9451000C9451000C9451000C9451000C
:100030000C9451000C9451000C9451000C945100FC
:100040000C9451000C9451000C9451000C945100EC
:100050000C9451000C9451000C9451000C945100DC
:100060000C9451000C94510011241FBECFEFD8E026
:10007000DEBFCDBF13E0A0E0B1E0E8E9FCE002C0E4
:1000800005900D92AC33B107D9F723E0ACE3B3E0B0
:1000900001C01D92A234B207E1F70E942B010C941B
:1000A0004A060C9400008091C00087FFFCCF80912D
:1000B000C60008959091C00095FFFCCF8093C600C4
:1000C0000895CF93DF93EC018991882319F00E9462
:1000D0005A00FACFDF91CF9108958093BB0084E856
:1000E0008093BC008091BC0087FFFCCF0895CF9324
:1000F000DF93C82FD62F84EA8093BC008091BC0088
:1001000087FFFCCF8EE40E946D00CD2B8C2F8C607E
:100110000E946D0085E08A95F1F700008C2F8860C1
:100120000E946D0084E98093BC0085E38A95F1F715
:100130000000DF91CF910895CF93C82F60E0807FBA
:100140000E94770060E08C2F8295807F0E9477006C
:100150008FE39FE10197F1F700C00000CF91089570
:1001600081E00E949C008FE39FE10197F1F700C0BE
:10017000000008950F931F93CF938C01F801C19154
:100180008F01CC2379F061E08C2F807F0E94770073
:1001900061E08C2F8295807F0E947700F0EAFA95CB
:1001A000F1F7ECCFCF911F910F910895CF92DF928D
:1001B000EF92FF920F931F93CF93DF93CDB7DEB7EC
:1001C000A2970FB6F894DEBF0FBECDBF8C0181E1C0
:1001D0009E012F5F3F4F6901F901282F11922A9547
:1001E000E9F77E0132E1E30EF11CF70111928A95E5
:1001F000E9F740E150E0B801C6010E946303F8014D
:1002000001900020E9F73197E01BF10B719740F066
:10021000B801605F7F4F40E150E0C7010E94630377
:1002200080E80E949C00C6010E94BA0080EC0E94F7
:100230009C00C7010E94BA00A2960FB6F894DEBFD8
:100240000FBECDBFDF91CF911F910F91FF90EF9027
:10025000DF90CF900895CF93DF93CDB7DEB7E197CE
:100260000FB6F894DEBF0FBECDBF1092B90088E480
:100270008093B8002FEF30E742E0215030404040FB
:10028000E1F700C0000083E30E949C0082E30E942B
:100290009C0088E20E949C008CE00E949C0086E00A
:1002A0000E949C0081E00E949C008FE39FE10197E7
:1002B000F1F700C000001092C50087E68093C400EB
:1002C00088E18093C10086E08093C2000E94B00064
:1002D00080E091E00E94BA009FEF27EA31E691505A
:1002E00020403040E1F700C000008AB18C608AB93C
:1002F0000E94B0008CE091E00E94D60084E291E080
:100300000E94610084E591E00E94610004E610E033
:100310008091C00087FF14C10E9453008F7D8435F7
:1003200009F00AC18091C00087FF03C08091C60018
:10033000F9CF85E891E00E9461000E945300182FD8
:1003400080ED810F8A30C8F7812F012E000C990BA8
:10035000C097909341038093400386EA91E00E9406
:100360006100812F0E945A001E0186E0280E311C78
:100370008E010F5D1F4F2DE2422E23E0522E33EAF5
:10038000632E32E0732E9E012F5F3F4F690142ECD6
:10039000A42E42E0B42E549A5C983FEF49EF60E0FF
:1003A000315040406040E1F700C000005C9A75EDBC
:1003B0007A95F1F70000549885ED8A95F1F70000E1
:1003C0004C99A5C08FE391E00197F1F700C00000C0
:1003D0004C9B9DC08FE391E00197F1F700C00000B6
:1003E000FE01319687E090E020E04C9BFECF30EAA2
:1003F0003A95F1F74C9B08C041E050E0082E01C04F
:10040000440F0A94EAF7242B4C99FECF019768F722
:100410002193E215F30531F789809B804D818A8114
:10042000682D680F7727771F9B01290D311D8C815F
:10043000820F932F911D99274817190609F067C05D
:100440000E94B00080E80E949C001F929F926CE185
:1004500073E07F936F931F930F930E947203C80101
:100460000E94BA0080EC0E949C001F928F925F92C3
:100470004F921F930F930E947203C8010E94BA000B
:100480009FEF21EE34E0915020403040E1F700C072
:100490000000E0903C03F0903D030FB6F894DEBFFF
:1004A0000FBECDBF74E6E716F10408F05DC0EE0C98
:1004B000FF1C692DC7010E945503682DC7010196D5
:1004C0000E94550380913C0390913D0301969093C7
:1004D0003D0380933C0380913E0390913F0384361B
:1004E000910528F4019690933F0380933E037EE1AB
:1004F000791508F03EC05A9A5B9A0E94B0008BEEC4
:1005000091E00E94D6008CE092E00E946100809110
:10051000C00087FF57C00E9453008F7D843509F0CB
:100520006FC08AE292E00E9461008091C00087FF64
:1005300023C08091C600F9CF82EC91E00E94610057
:100540004FEF61EE74E0415060407040E1F700C051
:1005500000000150110909F0DBCE85E090E0909396
:1005600041038093400300CF10923D0310923C035F
:10057000B2CF5A985B98CBCF0E945300F82E80EDF3
:100580008F0D8A3048F48F2D0F2C000C990BC097DB
:10059000909341038093400386EA91E00E946100BA
:1005A0008F2D0E945A000E94B0008BE592E00E94BD
:1005B000D6008FEF97EA21E6815090402040E1F786
:1005C00000C000007FEF81EE94E0715080409040C9
:1005D000E1F700C0000090E080E0209140033091FE
:1005E00041038217930708F0D6CE2FEF33ED40E397
:1005F000215030404040E1F700C000000196EDCFAF
:10060000803501F784E792E00E9461008091400309
:10061000909141039F938F937F926F92DF92CF923D
:100620000E947203C6010E9461000F900F900F900C
:100630000F900F900F90F12CE12C80913E03909140
:100640003F03E816F90620F54701880C991CC40100
:100650000E944D0389ABC40101960E944D033FEFF8
:10066000E31AF30A1F928F931F9249A94F93FF92A7
:10067000EF92BF92AF92DF92CF920E947203C601B7
:100680000E9461000FB6F894DEBF0FBECDBFD5CF7C
:100690008FEE92E00E94610095CFF999FECF92BD56
:1006A00081BDF89A992780B50895262FF999FECF34
:1006B0001FBA92BD81BD20BD0FB6F894FA9AF99A7F
:1006C0000FBE01960895FB01DC014150504048F0F7
:1006D00001900D920020C9F701C01D924150504079
:1006E000E0F70895AEE0B0E0E8E7F3E00C9421060F
:1006F0000D891E8986E08C831A8309838FEF9FE71B
:100700009E838D83AE01475E5F4F6F89788DCE01EA
:1007100001960E9495032F813885020F131FF8015F
:1007200010822E96E4E00C943D06ABE0B0E0EBE9DD
:10073000F3E00C9413067C013B018A01FC01178253
:100740001682838181FFC8C1CE0101965C01F70149
:100750009381F30193FD859193FF81913F0188235C
:1007600009F453C1853239F493FD859193FF81914A
:100770003F01853229F4B70190E00E948505E7CF5B
:10078000912C212C312CFFE1F31538F08B3211F133
:1007900090F4803209F1833229F137FC3CC020ED1E
:1007A000280F2A3050F536FE20C08AE0989E200D92
:1007B0001124922E06C08D3291F0803371F7689427
:1007C00030F8F30193FD859193FF81913F018111F1
:1007D000DACF21C0689431F8689432F8F2CF689487
:1007E00033F8EFCF689434F8ECCFEAE02E9E200D7A
:1007F0001124222E689435F8E4CF8E3229F436FC89
:1008000004C1689436F8DDCF8C3619F4689437F853
:10081000D8CF8836B1F2982F9F7D95549330E0F071
:100820008336A1F18337C1F1833509F063C0280114
:10083000F2E04F0E511CF801C080D180692D70E0AC
:1008400036FC02C06FEF7FEFC6010E946F054C01BE
:10085000689437F882010AC00C5F1F4FFFE3F983E9
:1008600088248394912C6501E89437F833FE2DC0D9
:10087000522C8114910471F5552009F468CFB70109
:1008800080E290E00E9485055A94F6CFF8018081BD
:1008900089830E5F1F4FE4CF2801F2E04F0E511CF9
:1008A000F801C080D180692D70E036FC02C06FEF86
:1008B0007FEFC6010E947A054C018201D5CFB701B6
:1008C00080E290E00E9485052A942814190409F01A
:1008D000B0F7CECFF60137FC859137FE81916F01DD
:1008E000B70190E00E94850551105A94F1E08F1AEB
:1008F0009108BFCF843619F0893609F077C0F80126
:1009000037FE6BC060817181828193810C5F1F4FC4
:10091000F32DFF763F2E97FF09C090958095709537
:1009200061957F4F8F4F9F4F689437F82AE030E0F2
:10093000A5010E94B505C82ECA188C2C432C36FE82
:100940000CC0E89440F8C91440F434FE05C032FCF1
:1009500003C0F32DFE7E4F2E892C44FE95C0FE0170
:10096000EC0DF11D8081803309F087C0242D297E94
:10097000422E842D8870582E43FC95C040FE8FC0B7
:100980009C2C821418F42C0C922C981844FE91C0C4
:10099000B70180E390E00E94850542FE09C088E728
:1009A00090E041FE02C088E590E0B7010E94850515
:1009B000C91408F48AC0CA94D12C9FEFC91AD90A65
:1009C000CA0CDB1CF60182916F01B70190E00E9416
:1009D0008505AC14BD04B1F74FCF60817181072E3E
:1009E000000C880B990B0E5F1F4F92CFD32CE8940D
:1009F000D4F82AE030E0853739F1232D297FD22E33
:100A00008F3601F148F48835A9F0F7018681978186
:100A10002B96E2E10C942F06803749F08837A9F72E
:100A2000D4FE02C06894D2F820E130E00DC0689492
:100A3000D4F8F6CF34FE03C0822F8660D82E20E192
:100A400032E002C028E030E0F801D7FE0FC060813C
:100A50007181828193810C5F1F4FA5010E94B505B2
:100A6000C82ECA183D2CE89437F867CF6081718191
:100A700090E080E00E5F1F4FF0CF42FC02C08394F5
:100A800078CF8394839475CF842D867809F471CFC1
:100A9000F6CFB70180E290E00E948505839482142E
:100AA000C0F3512C73CF522C5818821408F46ECF17
:100AB000F8CF842D867809F47BCF8BE241FE80E26B
:100AC00047FC8DE2B70190E071CFB70180E390E081
:100AD0000E9485059A946CCF8FEF9FEF99CFFC0110
:100AE0000590615070400110D8F7809590958E0F59
:100AF0009F1F0895FC016150704001900110D8F7CC
:100B0000809590958E0F9F1F08950F931F93CF93FD
:100B1000DF93182F092FEB018B8181FD09C01FEF97
:100B20000FEF812F902FDF91CF911F910F9108959B
:100B300082FF14C02E813F818C819D812817390747
:100B40003CF4E881F981CF01019699838883108371
:100B50008E819F8101969F838E83E3CFE885F985FF
:100B6000812F0995892BA1F3DACFFA01AA27283022
:100B700051F1203181F1E8946F936E7F6E5F7F4F6A
:100B80008F4F9F4FAF4FB1E03ED0B4E03CD0670FE6
:100B9000781F891F9A1FA11D680F791F8A1F911D39
:100BA000A11D6A0F711D811D911DA11D20D009F489
:100BB00068943F912AE0269F11243019305D3193CB
:100BC000DEF6CF010895462F4770405D4193B3E0B4
:100BD0000FD0C9F7F6CF462F4F70405D4A3318F05B
:100BE000495D31FD4052419302D0A9F7EACFB4E00C
:100BF000A6959795879577956795BA95C9F70097C4
:100C00006105710508959B01AC010A2E0694579564
:100C1000479537952795BA95C9F7620F731F841FBB
:100C2000951FA01D08952F923F924F925F926F9251
:100C30007F928F929F92AF92BF92CF92DF92EF926C
:100C4000FF920F931F93CF93DF93CDB7DEB7CA1BED
:100C5000DB0B0FB6F894DEBF0FBECDBF09942A8818
:100C6000398848885F846E847D848C849B84AA84C0
:100C7000B984C884DF80EE80FD800C811B81AA814D
:100C8000B981CE0FD11D0FB6F894DEBF0FBECDBF18
:100C9000ED010895F894FFCF4269656E76656E693F
:100CA000646F210056697375616C696365206C61BE
:100CB00020202020436F6E736F6C610050756C7341
:100CC0006520275427207061726120636F6E66690A
:100CD0006775726172207469656D706F206465203C
:100CE0006D7565737472656F2E0D0A005369206E01
:100CF0006F20686179207265737075657374612007
:100D0000656E203130207365672C20736520757304
:100D10006172612035207365672E0D0A00496E6788
:100D200072657365206E7565766F207469656D7088
:100D30006F2028302D3920736567293A20000A4E2C
:100D40007565766F207469656D706F206465206DC0
:100D50007565737472656F3A20000A456E7472612E
:100D60006461206E6F2076C3A16C6964612E200AD5
:100D7000496E74656E7465206465206E7565766F66
:100D80003A2000414C455254413A20202020202056
:100D900020202054656D7065726174757261203E0B
:100DA00033304300416C657274613A2054656D7054
:100DB00065726174757261203E203330C2B0430D9C
:100DC0000A000A496E677265736520656C206E754E
:100DD00065766F207469656D706F206465206D7530
:100DE00065737472656F2028302D3920736567290B
:100DF0003A20005469656D706F204D75657374728B
:100E0000656F2043616D626961646F000D0A2D2D6D
:100E10002D2D2D2D2D2D2D2D2D2D2D2D204461747D
:100E20006F7320454550524F4D202D2D2D2D2D2DCA
:100E30002D2D2D2D2D2D2D2D0D0A005469656D7034
:100E40006F206465206D7565737472656F206163D2
:100E50007475616C3A2025640A004D75657374726F
:100E6000612025643A2054656D70657261747572F5
:100E700061203D2025642C2048756D6564616420E7
:100E80003D2025640D0A002D2D2D2D2D2D2D2D2DD0
:100E90002D2D2D2D2D2D2D2D2D2D2D2D2D2D2D2D82
:100EA0002D2D2D2D2D2D2D2D2D2D2D2D2D2D2D2D72
:100EB0002D0D0A0054656D70657261747572613A2A
:100EC000202564430048756D656461643A2025649B
:040ED00025250000D4
:107E0000112484B714BE81FFF0D085E080938100F7
:107E100082E08093C00088E18093C10086E0809377
:107E2000C20080E18093C4008EE0C9D0259A86E02C
:107E300020E33CEF91E0309385002093840096BBD3
:107E4000B09BFECF1D9AA8958150A9F7CC24DD24C4
:107E500088248394B5E0AB2EA1E19A2EF3E0BF2EE7
:107E6000A2D0813461F49FD0082FAFD0023811F036
:107E7000013811F484E001C083E08DD089C08234E0
:107E800011F484E103C0853419F485E0A6D080C0E4
:107E9000853579F488D0E82EFF2485D0082F10E0AE
:107EA000102F00270E291F29000F111F8ED06801E7
:107EB0006FC0863521F484E090D080E0DECF843638
:107EC00009F040C070D06FD0082F6DD080E0C81688
:107ED00080E7D80618F4F601B7BEE895C0E0D1E017
:107EE00062D089930C17E1F7F0E0CF16F0E7DF06D8
:107EF00018F0F601B7BEE89568D007B600FCFDCFD4
:107F0000A601A0E0B1E02C9130E011968C91119780
:107F100090E0982F8827822B932B1296FA010C0160
:107F200087BEE89511244E5F5F4FF1E0A038BF0790
:107F300051F7F601A7BEE89507B600FCFDCF97BE46
:107F4000E89526C08437B1F42ED02DD0F82E2BD052
:107F50003CD0F601EF2C8F010F5F1F4F84911BD097
:107F6000EA94F801C1F70894C11CD11CFA94CF0C13
:107F7000D11C0EC0853739F428D08EE10CD085E9AC
:107F80000AD08FE07ACF813511F488E018D01DD067
:107F900080E101D065CF982F8091C00085FFFCCF94
:107FA0009093C60008958091C00087FFFCCF809118
:107FB000C00084FD01C0A8958091C6000895E0E648
:107FC000F0E098E1908380830895EDDF803219F02E
:107FD00088E0F5DFFFCF84E1DECF1F93182FE3DFCA
:107FE0001150E9F7F2DF1F91089580E0E8DFEE27F6
:047FF000FF270994CA
:027FFE00040479
:00000001FF
